{
  "contractName": "OneVoteFactory",
  "abi": [
    {
      "inputs": [],
      "stateMutability": "payable",
      "type": "constructor"
    },
    {
      "anonymous": false,
      "inputs": [
        {
          "indexed": false,
          "internalType": "string",
          "name": "pollTitle",
          "type": "string"
        },
        {
          "indexed": false,
          "internalType": "string",
          "name": "pollCode",
          "type": "string"
        },
        {
          "indexed": false,
          "internalType": "address",
          "name": "pollAddress",
          "type": "address"
        }
      ],
      "name": "pollCreated",
      "type": "event"
    },
    {
      "inputs": [
        {
          "internalType": "string",
          "name": "_pollCode",
          "type": "string"
        },
        {
          "internalType": "string",
          "name": "_pollTitle",
          "type": "string"
        },
        {
          "internalType": "uint256",
          "name": "_startTime",
          "type": "uint256"
        },
        {
          "internalType": "uint256",
          "name": "_endTime",
          "type": "uint256"
        },
        {
          "components": [
            {
              "internalType": "uint256",
              "name": "id",
              "type": "uint256"
            },
            {
              "internalType": "string",
              "name": "name",
              "type": "string"
            },
            {
              "components": [
                {
                  "internalType": "uint256",
                  "name": "id",
                  "type": "uint256"
                },
                {
                  "internalType": "string",
                  "name": "name",
                  "type": "string"
                },
                {
                  "internalType": "uint256",
                  "name": "votes",
                  "type": "uint256"
                }
              ],
              "internalType": "struct PollVariables.Candidate[]",
              "name": "candidates",
              "type": "tuple[]"
            }
          ],
          "internalType": "struct PollVariables.Category[]",
          "name": "_categories",
          "type": "tuple[]"
        },
        {
          "internalType": "address[]",
          "name": "_voters",
          "type": "address[]"
        },
        {
          "internalType": "bool",
          "name": "_isBasicPoll",
          "type": "bool"
        }
      ],
      "name": "createPoll",
      "outputs": [],
      "stateMutability": "payable",
      "type": "function"
    },
    {
      "inputs": [
        {
          "internalType": "string",
          "name": "_pollCode",
          "type": "string"
        }
      ],
      "name": "getPollAddress",
      "outputs": [
        {
          "internalType": "address",
          "name": "",
          "type": "address"
        }
      ],
      "stateMutability": "view",
      "type": "function"
    }
  ],
  "bytecode": "0x6080604052612dc8806100136000396000f3fe6080604052600436106200002c5760003560e01c8063794f25f2146200003157806385222bf71462000075575b600080fd5b3480156200003e57600080fd5b506200005d60048036038101906200005791906200043e565b62000095565b6040516200006c9190620004d4565b60405180910390f35b6200009360048036038101906200008d9190620009a8565b620000df565b005b6000600382604051620000a9919062000b5a565b908152602001604051809103902060009054906101000a900473ffffffffffffffffffffffffffffffffffffffff169050919050565b600073ffffffffffffffffffffffffffffffffffffffff1660038860405162000109919062000b5a565b908152602001604051809103902060009054906101000a900473ffffffffffffffffffffffffffffffffffffffff1673ffffffffffffffffffffffffffffffffffffffff161462000191576040517f08c379a0000000000000000000000000000000000000000000000000000000008152600401620001889062000bd4565b60405180910390fd5b86868686868686604051620001a690620002ba565b620001b8979695949392919062000fdd565b604051809103906000f080158015620001d5573d6000803e3d6000fd5b50600388604051620001e8919062000b5a565b908152602001604051809103902060006101000a81548173ffffffffffffffffffffffffffffffffffffffff021916908373ffffffffffffffffffffffffffffffffffffffff1602179055507f2dd6bb77ee6b9f1b44fe21e99517335523a730f9fa21a6bfbf861923f239a6be868860038a60405162000269919062000b5a565b908152602001604051809103902060009054906101000a900473ffffffffffffffffffffffffffffffffffffffff16604051620002a99392919062001076565b60405180910390a150505050505050565b611cd180620010c283390190565b6000604051905090565b600080fd5b600080fd5b600080fd5b600080fd5b6000601f19601f8301169050919050565b7f4e487b7100000000000000000000000000000000000000000000000000000000600052604160045260246000fd5b6200033182620002e6565b810181811067ffffffffffffffff82111715620003535762000352620002f7565b5b80604052505050565b600062000368620002c8565b905062000376828262000326565b919050565b600067ffffffffffffffff821115620003995762000398620002f7565b5b620003a482620002e6565b9050602081019050919050565b82818337600083830152505050565b6000620003d7620003d1846200037b565b6200035c565b905082815260208101848484011115620003f657620003f5620002e1565b5b62000403848285620003b1565b509392505050565b600082601f830112620004235762000422620002dc565b5b813562000435848260208601620003c0565b91505092915050565b600060208284031215620004575762000456620002d2565b5b600082013567ffffffffffffffff811115620004785762000477620002d7565b5b62000486848285016200040b565b91505092915050565b600073ffffffffffffffffffffffffffffffffffffffff82169050919050565b6000620004bc826200048f565b9050919050565b620004ce81620004af565b82525050565b6000602082019050620004eb6000830184620004c3565b92915050565b6000819050919050565b6200050681620004f1565b81146200051257600080fd5b50565b6000813590506200052681620004fb565b92915050565b600067ffffffffffffffff8211156200054a5762000549620002f7565b5b602082029050602081019050919050565b600080fd5b600080fd5b600080fd5b600067ffffffffffffffff821115620005885762000587620002f7565b5b602082029050602081019050919050565b600060608284031215620005b257620005b162000560565b5b620005be60606200035c565b90506000620005d08482850162000515565b600083015250602082013567ffffffffffffffff811115620005f757620005f662000565565b5b62000605848285016200040b565b60208301525060406200061b8482850162000515565b60408301525092915050565b60006200063e62000638846200056a565b6200035c565b905080838252602082019050602084028301858111156200066457620006636200055b565b5b835b81811015620006b257803567ffffffffffffffff8111156200068d576200068c620002dc565b5b8086016200069c898262000599565b8552602085019450505060208101905062000666565b5050509392505050565b600082601f830112620006d457620006d3620002dc565b5b8135620006e684826020860162000627565b91505092915050565b60006060828403121562000708576200070762000560565b5b6200071460606200035c565b90506000620007268482850162000515565b600083015250602082013567ffffffffffffffff8111156200074d576200074c62000565565b5b6200075b848285016200040b565b602083015250604082013567ffffffffffffffff81111562000782576200078162000565565b5b6200079084828501620006bc565b60408301525092915050565b6000620007b3620007ad846200052c565b6200035c565b90508083825260208201905060208402830185811115620007d957620007d86200055b565b5b835b818110156200082757803567ffffffffffffffff811115620008025762000801620002dc565b5b808601620008118982620006ef565b85526020850194505050602081019050620007db565b5050509392505050565b600082601f830112620008495762000848620002dc565b5b81356200085b8482602086016200079c565b91505092915050565b600067ffffffffffffffff821115620008825762000881620002f7565b5b602082029050602081019050919050565b6200089e81620004af565b8114620008aa57600080fd5b50565b600081359050620008be8162000893565b92915050565b6000620008db620008d58462000864565b6200035c565b905080838252602082019050602084028301858111156200090157620009006200055b565b5b835b818110156200092e5780620009198882620008ad565b84526020840193505060208101905062000903565b5050509392505050565b600082601f83011262000950576200094f620002dc565b5b813562000962848260208601620008c4565b91505092915050565b60008115159050919050565b62000982816200096b565b81146200098e57600080fd5b50565b600081359050620009a28162000977565b92915050565b600080600080600080600060e0888a031215620009ca57620009c9620002d2565b5b600088013567ffffffffffffffff811115620009eb57620009ea620002d7565b5b620009f98a828b016200040b565b975050602088013567ffffffffffffffff81111562000a1d5762000a1c620002d7565b5b62000a2b8a828b016200040b565b965050604062000a3e8a828b0162000515565b955050606062000a518a828b0162000515565b945050608088013567ffffffffffffffff81111562000a755762000a74620002d7565b5b62000a838a828b0162000831565b93505060a088013567ffffffffffffffff81111562000aa75762000aa6620002d7565b5b62000ab58a828b0162000938565b92505060c062000ac88a828b0162000991565b91505092959891949750929550565b600081519050919050565b600081905092915050565b60005b8381101562000b0d57808201518184015260208101905062000af0565b8381111562000b1d576000848401525b50505050565b600062000b308262000ad7565b62000b3c818562000ae2565b935062000b4e81856020860162000aed565b80840191505092915050565b600062000b68828462000b23565b915081905092915050565b600082825260208201905092915050565b7f506f6c6c636f646520616c726561647920696e20757365210000000000000000600082015250565b600062000bbc60188362000b73565b915062000bc98262000b84565b602082019050919050565b6000602082019050818103600083015262000bef8162000bad565b9050919050565b600062000c038262000ad7565b62000c0f818562000b73565b935062000c2181856020860162000aed565b62000c2c81620002e6565b840191505092915050565b62000c4281620004f1565b82525050565b600081519050919050565b600082825260208201905092915050565b6000819050602082019050919050565b62000c7f81620004f1565b82525050565b600082825260208201905092915050565b600062000ca38262000ad7565b62000caf818562000c85565b935062000cc181856020860162000aed565b62000ccc81620002e6565b840191505092915050565b600081519050919050565b600082825260208201905092915050565b6000819050602082019050919050565b600060608301600083015162000d1d600086018262000c74565b506020830151848203602086015262000d37828262000c96565b915050604083015162000d4e604086018262000c74565b508091505092915050565b600062000d67838362000d03565b905092915050565b6000602082019050919050565b600062000d898262000cd7565b62000d95818562000ce2565b93508360208202850162000da98562000cf3565b8060005b8581101562000deb578484038952815162000dc9858262000d59565b945062000dd68362000d6f565b925060208a0199505060018101905062000dad565b50829750879550505050505092915050565b600060608301600083015162000e17600086018262000c74565b506020830151848203602086015262000e31828262000c96565b9150506040830151848203604086015262000e4d828262000d7c565b9150508091505092915050565b600062000e68838362000dfd565b905092915050565b6000602082019050919050565b600062000e8a8262000c48565b62000e96818562000c53565b93508360208202850162000eaa8562000c64565b8060005b8581101562000eec578484038952815162000eca858262000e5a565b945062000ed78362000e70565b925060208a0199505060018101905062000eae565b50829750879550505050505092915050565b600081519050919050565b600082825260208201905092915050565b6000819050602082019050919050565b62000f3581620004af565b82525050565b600062000f49838362000f2a565b60208301905092915050565b6000602082019050919050565b600062000f6f8262000efe565b62000f7b818562000f09565b935062000f888362000f1a565b8060005b8381101562000fbf57815162000fa3888262000f3b565b975062000fb08362000f55565b92505060018101905062000f8c565b5085935050505092915050565b62000fd7816200096b565b82525050565b600060e082019050818103600083015262000ff9818a62000bf6565b905081810360208301526200100f818962000bf6565b905062001020604083018862000c37565b6200102f606083018762000c37565b818103608083015262001043818662000e7d565b905081810360a083015262001059818562000f62565b90506200106a60c083018462000fcc565b98975050505050505050565b6000606082019050818103600083015262001092818662000bf6565b90508181036020830152620010a8818562000bf6565b9050620010b96040830184620004c3565b94935050505056fe608060405260405162001cd138038062001cd1833981810160405281019062000029919062000ba9565b86600390805190602001906200004192919062000471565b5085600490805190602001906200005a92919062000471565b50846005819055508360068190555080600760006101000a81548160ff02191690831515021790555060005b83518110156200038a57600060018160018154018082558091505003906000526020600020905050838181518110620000c457620000c362000cd8565b5b60200260200101516000015160008281548110620000e757620000e662000cd8565b5b90600052602060002090600302016000018190555083818151811062000112576200011162000cd8565b5b6020026020010151602001516000828154811062000135576200013462000cd8565b5b906000526020600020906003020160010190805190602001906200015b92919062000471565b5060005b84828151811062000175576200017462000cd8565b5b60200260200101516040015151811015620003735760008281548110620001a157620001a062000cd8565b5b906000526020600020906003020160020160018160018154018082558091505003906000526020600020905050848281518110620001e457620001e362000cd8565b5b602002602001015160400151818151811062000205576200020462000cd8565b5b6020026020010151600001516000838154811062000228576200022762000cd8565b5b906000526020600020906003020160020182815481106200024e576200024d62000cd8565b5b90600052602060002090600302016000018190555084828151811062000279576200027862000cd8565b5b60200260200101516040015181815181106200029a576200029962000cd8565b5b60200260200101516020015160008381548110620002bd57620002bc62000cd8565b5b90600052602060002090600302016002018281548110620002e357620002e262000cd8565b5b906000526020600020906003020160010190805190602001906200030992919062000471565b50600080838154811062000322576200032162000cd8565b5b9060005260206000209060030201600201828154811062000348576200034762000cd8565b5b90600052602060002090600302016002018190555080806200036a9062000d36565b9150506200015f565b508080620003819062000d36565b91505062000086565b5060005b825181101562000422576001806000858481518110620003b357620003b262000cd8565b5b602002602001015173ffffffffffffffffffffffffffffffffffffffff1673ffffffffffffffffffffffffffffffffffffffff16815260200190815260200160002060006101000a81548160ff0219169083151502179055508080620004199062000d36565b9150506200038e565b5060005b83518110156200046357600260018160018154018082558091505003906000526020600020505080806200045a9062000d36565b91505062000426565b505050505050505062000de9565b8280546200047f9062000db3565b90600052602060002090601f016020900481019282620004a35760008555620004ef565b82601f10620004be57805160ff1916838001178555620004ef565b82800160010185558215620004ef579182015b82811115620004ee578251825591602001919060010190620004d1565b5b509050620004fe919062000502565b5090565b5b808211156200051d57600081600090555060010162000503565b5090565b6000604051905090565b600080fd5b600080fd5b600080fd5b600080fd5b6000601f19601f8301169050919050565b7f4e487b7100000000000000000000000000000000000000000000000000000000600052604160045260246000fd5b6200058a826200053f565b810181811067ffffffffffffffff82111715620005ac57620005ab62000550565b5b80604052505050565b6000620005c162000521565b9050620005cf82826200057f565b919050565b600067ffffffffffffffff821115620005f257620005f162000550565b5b620005fd826200053f565b9050602081019050919050565b60005b838110156200062a5780820151818401526020810190506200060d565b838111156200063a576000848401525b50505050565b6000620006576200065184620005d4565b620005b5565b9050828152602081018484840111156200067657620006756200053a565b5b620006838482856200060a565b509392505050565b600082601f830112620006a357620006a262000535565b5b8151620006b584826020860162000640565b91505092915050565b6000819050919050565b620006d381620006be565b8114620006df57600080fd5b50565b600081519050620006f381620006c8565b92915050565b600067ffffffffffffffff82111562000717576200071662000550565b5b602082029050602081019050919050565b600080fd5b600080fd5b600080fd5b600067ffffffffffffffff82111562000755576200075462000550565b5b602082029050602081019050919050565b6000606082840312156200077f576200077e6200072d565b5b6200078b6060620005b5565b905060006200079d84828501620006e2565b600083015250602082015167ffffffffffffffff811115620007c457620007c362000732565b5b620007d2848285016200068b565b6020830152506040620007e884828501620006e2565b60408301525092915050565b60006200080b620008058462000737565b620005b5565b9050808382526020820190506020840283018581111562000831576200083062000728565b5b835b818110156200087f57805167ffffffffffffffff8111156200085a576200085962000535565b5b80860162000869898262000766565b8552602085019450505060208101905062000833565b5050509392505050565b600082601f830112620008a157620008a062000535565b5b8151620008b3848260208601620007f4565b91505092915050565b600060608284031215620008d557620008d46200072d565b5b620008e16060620005b5565b90506000620008f384828501620006e2565b600083015250602082015167ffffffffffffffff8111156200091a576200091962000732565b5b62000928848285016200068b565b602083015250604082015167ffffffffffffffff8111156200094f576200094e62000732565b5b6200095d8482850162000889565b60408301525092915050565b6000620009806200097a84620006f9565b620005b5565b90508083825260208201905060208402830185811115620009a657620009a562000728565b5b835b81811015620009f457805167ffffffffffffffff811115620009cf57620009ce62000535565b5b808601620009de8982620008bc565b85526020850194505050602081019050620009a8565b5050509392505050565b600082601f83011262000a165762000a1562000535565b5b815162000a2884826020860162000969565b91505092915050565b600067ffffffffffffffff82111562000a4f5762000a4e62000550565b5b602082029050602081019050919050565b600073ffffffffffffffffffffffffffffffffffffffff82169050919050565b600062000a8d8262000a60565b9050919050565b62000a9f8162000a80565b811462000aab57600080fd5b50565b60008151905062000abf8162000a94565b92915050565b600062000adc62000ad68462000a31565b620005b5565b9050808382526020820190506020840283018581111562000b025762000b0162000728565b5b835b8181101562000b2f578062000b1a888262000aae565b84526020840193505060208101905062000b04565b5050509392505050565b600082601f83011262000b515762000b5062000535565b5b815162000b6384826020860162000ac5565b91505092915050565b60008115159050919050565b62000b838162000b6c565b811462000b8f57600080fd5b50565b60008151905062000ba38162000b78565b92915050565b600080600080600080600060e0888a03121562000bcb5762000bca6200052b565b5b600088015167ffffffffffffffff81111562000bec5762000beb62000530565b5b62000bfa8a828b016200068b565b975050602088015167ffffffffffffffff81111562000c1e5762000c1d62000530565b5b62000c2c8a828b016200068b565b965050604062000c3f8a828b01620006e2565b955050606062000c528a828b01620006e2565b945050608088015167ffffffffffffffff81111562000c765762000c7562000530565b5b62000c848a828b01620009fe565b93505060a088015167ffffffffffffffff81111562000ca85762000ca762000530565b5b62000cb68a828b0162000b39565b92505060c062000cc98a828b0162000b92565b91505092959891949750929550565b7f4e487b7100000000000000000000000000000000000000000000000000000000600052603260045260246000fd5b7f4e487b7100000000000000000000000000000000000000000000000000000000600052601160045260246000fd5b600062000d4382620006be565b91507fffffffffffffffffffffffffffffffffffffffffffffffffffffffffffffffff82141562000d795762000d7862000d07565b5b600182019050919050565b7f4e487b7100000000000000000000000000000000000000000000000000000000600052602260045260246000fd5b6000600282049050600182168062000dcc57607f821691505b6020821081141562000de35762000de262000d84565b5b50919050565b610ed88062000df96000396000f3fe608060405234801561001057600080fd5b50600436106100415760003560e01c80634db0412c14610046578063883032e814610064578063b384abef14610087575b600080fd5b61004e6100a3565b60405161005b9190610b12565b60405180910390f35b61006c6102a3565b60405161007e96959493929190610ba8565b60405180910390f35b6100a1600480360381019061009c9190610c4f565b6105ef565b005b60606000805480602002602001604051908101604052809291908181526020016000905b8282101561029a57838290600052602060002090600302016040518060600160405290816000820154815260200160018201805461010490610cbe565b80601f016020809104026020016040519081016040528092919081815260200182805461013090610cbe565b801561017d5780601f106101525761010080835404028352916020019161017d565b820191906000526020600020905b81548152906001019060200180831161016057829003601f168201915b5050505050815260200160028201805480602002602001604051908101604052809291908181526020016000905b828210156102835783829060005260206000209060030201604051806060016040529081600082015481526020016001820180546101e890610cbe565b80601f016020809104026020016040519081016040528092919081815260200182805461021490610cbe565b80156102615780601f1061023657610100808354040283529160200191610261565b820191906000526020600020905b81548152906001019060200180831161024457829003601f168201915b50505050508152602001600282015481525050815260200190600101906101ab565b5050505081525050815260200190600101906100c7565b50505050905090565b60608060008060606000600360046005546006546000600760009054906101000a900460ff168580546102d590610cbe565b80601f016020809104026020016040519081016040528092919081815260200182805461030190610cbe565b801561034e5780601f106103235761010080835404028352916020019161034e565b820191906000526020600020905b81548152906001019060200180831161033157829003601f168201915b5050505050955084805461036190610cbe565b80601f016020809104026020016040519081016040528092919081815260200182805461038d90610cbe565b80156103da5780601f106103af576101008083540402835291602001916103da565b820191906000526020600020905b8154815290600101906020018083116103bd57829003601f168201915b5050505050945081805480602002602001604051908101604052809291908181526020016000905b828210156105d557838290600052602060002090600302016040518060600160405290816000820154815260200160018201805461043f90610cbe565b80601f016020809104026020016040519081016040528092919081815260200182805461046b90610cbe565b80156104b85780601f1061048d576101008083540402835291602001916104b8565b820191906000526020600020905b81548152906001019060200180831161049b57829003601f168201915b5050505050815260200160028201805480602002602001604051908101604052809291908181526020016000905b828210156105be57838290600052602060002090600302016040518060600160405290816000820154815260200160018201805461052390610cbe565b80601f016020809104026020016040519081016040528092919081815260200182805461054f90610cbe565b801561059c5780601f106105715761010080835404028352916020019161059c565b820191906000526020600020905b81548152906001019060200180831161057f57829003601f168201915b50505050508152602001600282015481525050815260200190600101906104e6565b505050508152505081526020019060010190610402565b505050509150955095509550955095509550909192939495565b60011515600160003373ffffffffffffffffffffffffffffffffffffffff1673ffffffffffffffffffffffffffffffffffffffff16815260200190815260200160002060009054906101000a900460ff16151514610682576040517f08c379a000000000000000000000000000000000000000000000000000000000815260040161067990610d62565b60405180910390fd5b600015156002838154811061069a57610699610d82565b5b9060005260206000200160000160003373ffffffffffffffffffffffffffffffffffffffff1673ffffffffffffffffffffffffffffffffffffffff16815260200190815260200160002060009054906101000a900460ff16151514610734576040517f08c379a000000000000000000000000000000000000000000000000000000000815260040161072b90610dfd565b60405180910390fd5b600115156002838154811061074c5761074b610d82565b5b9060005260206000200160000160003373ffffffffffffffffffffffffffffffffffffffff1673ffffffffffffffffffffffffffffffffffffffff16815260200190815260200160002060009054906101000a905050506001600083815481106107b9576107b8610d82565b5b906000526020600020906003020160020182815481106107dc576107db610d82565b5b906000526020600020906003020160020160008282546107fc9190610e4c565b9250508190555080827f0f0f3c75ae08bfe3e04ef6b0a78a0df0c6807aa51bac9acca949139a50ac95ab60405160405180910390a35050565b600081519050919050565b600082825260208201905092915050565b6000819050602082019050919050565b6000819050919050565b61087481610861565b82525050565b600081519050919050565b600082825260208201905092915050565b60005b838110156108b4578082015181840152602081019050610899565b838111156108c3576000848401525b50505050565b6000601f19601f8301169050919050565b60006108e58261087a565b6108ef8185610885565b93506108ff818560208601610896565b610908816108c9565b840191505092915050565b600081519050919050565b600082825260208201905092915050565b6000819050602082019050919050565b6000606083016000830151610957600086018261086b565b506020830151848203602086015261096f82826108da565b9150506040830151610984604086018261086b565b508091505092915050565b600061099b838361093f565b905092915050565b6000602082019050919050565b60006109bb82610913565b6109c5818561091e565b9350836020820285016109d78561092f565b8060005b85811015610a1357848403895281516109f4858261098f565b94506109ff836109a3565b925060208a019950506001810190506109db565b50829750879550505050505092915050565b6000606083016000830151610a3d600086018261086b565b5060208301518482036020860152610a5582826108da565b91505060408301518482036040860152610a6f82826109b0565b9150508091505092915050565b6000610a888383610a25565b905092915050565b6000602082019050919050565b6000610aa882610835565b610ab28185610840565b935083602082028501610ac485610851565b8060005b85811015610b005784840389528151610ae18582610a7c565b9450610aec83610a90565b925060208a01995050600181019050610ac8565b50829750879550505050505092915050565b60006020820190508181036000830152610b2c8184610a9d565b905092915050565b600082825260208201905092915050565b6000610b508261087a565b610b5a8185610b34565b9350610b6a818560208601610896565b610b73816108c9565b840191505092915050565b610b8781610861565b82525050565b60008115159050919050565b610ba281610b8d565b82525050565b600060c0820190508181036000830152610bc28189610b45565b90508181036020830152610bd68188610b45565b9050610be56040830187610b7e565b610bf26060830186610b7e565b8181036080830152610c048185610a9d565b9050610c1360a0830184610b99565b979650505050505050565b600080fd5b610c2c81610861565b8114610c3757600080fd5b50565b600081359050610c4981610c23565b92915050565b60008060408385031215610c6657610c65610c1e565b5b6000610c7485828601610c3a565b9250506020610c8585828601610c3a565b9150509250929050565b7f4e487b7100000000000000000000000000000000000000000000000000000000600052602260045260246000fd5b60006002820490506001821680610cd657607f821691505b60208210811415610cea57610ce9610c8f565b5b50919050565b7f596f75277265206e6f7420656c696769626c6520746f2070617274696369706160008201527f746520696e207468697320706f6c6c2100000000000000000000000000000000602082015250565b6000610d4c603083610b34565b9150610d5782610cf0565b604082019050919050565b60006020820190508181036000830152610d7b81610d3f565b9050919050565b7f4e487b7100000000000000000000000000000000000000000000000000000000600052603260045260246000fd5b7f596f7527766520616c726561647920766f746564210000000000000000000000600082015250565b6000610de7601583610b34565b9150610df282610db1565b602082019050919050565b60006020820190508181036000830152610e1681610dda565b9050919050565b7f4e487b7100000000000000000000000000000000000000000000000000000000600052601160045260246000fd5b6000610e5782610861565b9150610e6283610861565b9250827fffffffffffffffffffffffffffffffffffffffffffffffffffffffffffffffff03821115610e9757610e96610e1d565b5b82820190509291505056fea264697066735822122002533f2d313c9d5419a79e5bcbfe0ae2dc02bdd9e8b31821bbe16f028c5229c864736f6c634300080c0033a264697066735822122062ecb03bef3ab517eeb7f885f0268887af4082ecaf90b73ac6d81dfcbb01289964736f6c634300080c0033",
  "immutableReferences": {},
  "source": "// SPDX-License-Identifier: GPL-3.0\npragma solidity >=0.7.0 <0.9.0;\npragma experimental ABIEncoderV2;\n\nimport \"./Poll.sol\";\nimport \"./PollVariables.sol\";\n\ncontract OneVoteFactory is PollVariables {\n    mapping(string => address) polls;\n    event pollCreated(string pollTitle, string pollCode, address pollAddress);\n\n    constructor() payable {}\n\n    function createPoll(\n        string memory _pollCode,\n        string memory _pollTitle,\n        uint256 _startTime,\n        uint256 _endTime,\n        Category[] memory _categories,\n        address[] memory _voters,\n        bool _isBasicPoll\n    ) public payable {\n        require(\n            polls[_pollCode] == 0x0000000000000000000000000000000000000000,\n            \"Pollcode already in use!\"\n        );\n        polls[_pollCode] = address(\n            new Poll(\n                _pollCode,\n                _pollTitle,\n                _startTime,\n                _endTime,\n                _categories,\n                _voters,\n                _isBasicPoll\n            )\n        );\n        emit pollCreated(_pollTitle, _pollCode, polls[_pollCode]);\n    }\n\n    function getPollAddress(string memory _pollCode)\n        public\n        view\n        returns (address)\n    {\n        return polls[_pollCode];\n    }\n}\n",
  "sourcePath": "/home/eedris/projects/1VOTE/contracts/PollFactory.sol",
  "compiler": {
    "name": "solc",
    "version": "0.8.12+commit.f00d7308.Emscripten.clang"
  },
  "schemaVersion": "3.4.5",
  "updatedAt": "2022-03-04T01:31:29.372Z",
  "devdoc": {
    "kind": "dev",
    "methods": {},
    "version": 1
  },
  "userdoc": {
    "kind": "user",
    "methods": {},
    "version": 1
  }
}